{
  "_format": "hh-sol-artifact-1",
  "contractName": "Property",
  "sourceName": "contracts/Property.sol",
  "abi": [
    {
      "inputs": [
        {
          "internalType": "string",
          "name": "_baseUrl",
          "type": "string"
        },
        {
          "internalType": "uint256",
          "name": "_pricePerShare",
          "type": "uint256"
        },
        {
          "internalType": "uint256",
          "name": "_totalShares",
          "type": "uint256"
        }
      ],
      "stateMutability": "nonpayable",
      "type": "constructor"
    },
    {
      "anonymous": false,
      "inputs": [
        {
          "indexed": true,
          "internalType": "address",
          "name": "account",
          "type": "address"
        },
        {
          "indexed": true,
          "internalType": "address",
          "name": "operator",
          "type": "address"
        },
        {
          "indexed": false,
          "internalType": "bool",
          "name": "approved",
          "type": "bool"
        }
      ],
      "name": "ApprovalForAll",
      "type": "event"
    },
    {
      "anonymous": false,
      "inputs": [
        {
          "indexed": true,
          "internalType": "address",
          "name": "operator",
          "type": "address"
        },
        {
          "indexed": true,
          "internalType": "address",
          "name": "from",
          "type": "address"
        },
        {
          "indexed": true,
          "internalType": "address",
          "name": "to",
          "type": "address"
        },
        {
          "indexed": false,
          "internalType": "uint256[]",
          "name": "ids",
          "type": "uint256[]"
        },
        {
          "indexed": false,
          "internalType": "uint256[]",
          "name": "values",
          "type": "uint256[]"
        }
      ],
      "name": "TransferBatch",
      "type": "event"
    },
    {
      "anonymous": false,
      "inputs": [
        {
          "indexed": true,
          "internalType": "address",
          "name": "operator",
          "type": "address"
        },
        {
          "indexed": true,
          "internalType": "address",
          "name": "from",
          "type": "address"
        },
        {
          "indexed": true,
          "internalType": "address",
          "name": "to",
          "type": "address"
        },
        {
          "indexed": false,
          "internalType": "uint256",
          "name": "id",
          "type": "uint256"
        },
        {
          "indexed": false,
          "internalType": "uint256",
          "name": "value",
          "type": "uint256"
        }
      ],
      "name": "TransferSingle",
      "type": "event"
    },
    {
      "anonymous": false,
      "inputs": [
        {
          "indexed": false,
          "internalType": "string",
          "name": "value",
          "type": "string"
        },
        {
          "indexed": true,
          "internalType": "uint256",
          "name": "id",
          "type": "uint256"
        }
      ],
      "name": "URI",
      "type": "event"
    },
    {
      "inputs": [
        {
          "internalType": "address",
          "name": "account",
          "type": "address"
        },
        {
          "internalType": "uint256",
          "name": "id",
          "type": "uint256"
        }
      ],
      "name": "balanceOf",
      "outputs": [
        {
          "internalType": "uint256",
          "name": "",
          "type": "uint256"
        }
      ],
      "stateMutability": "view",
      "type": "function"
    },
    {
      "inputs": [
        {
          "internalType": "address[]",
          "name": "accounts",
          "type": "address[]"
        },
        {
          "internalType": "uint256[]",
          "name": "ids",
          "type": "uint256[]"
        }
      ],
      "name": "balanceOfBatch",
      "outputs": [
        {
          "internalType": "uint256[]",
          "name": "",
          "type": "uint256[]"
        }
      ],
      "stateMutability": "view",
      "type": "function"
    },
    {
      "inputs": [
        {
          "internalType": "address",
          "name": "account",
          "type": "address"
        },
        {
          "internalType": "address",
          "name": "operator",
          "type": "address"
        }
      ],
      "name": "isApprovedForAll",
      "outputs": [
        {
          "internalType": "bool",
          "name": "",
          "type": "bool"
        }
      ],
      "stateMutability": "view",
      "type": "function"
    },
    {
      "inputs": [
        {
          "internalType": "uint256",
          "name": "price",
          "type": "uint256"
        },
        {
          "internalType": "uint256",
          "name": "amount",
          "type": "uint256"
        }
      ],
      "name": "listShares",
      "outputs": [],
      "stateMutability": "nonpayable",
      "type": "function"
    },
    {
      "inputs": [
        {
          "internalType": "address",
          "name": "",
          "type": "address"
        }
      ],
      "name": "listings",
      "outputs": [
        {
          "internalType": "uint256",
          "name": "price",
          "type": "uint256"
        },
        {
          "internalType": "uint256",
          "name": "amount",
          "type": "uint256"
        }
      ],
      "stateMutability": "view",
      "type": "function"
    },
    {
      "inputs": [
        {
          "internalType": "uint256",
          "name": "amountOfTokens",
          "type": "uint256"
        }
      ],
      "name": "mint",
      "outputs": [],
      "stateMutability": "payable",
      "type": "function"
    },
    {
      "inputs": [
        {
          "internalType": "address",
          "name": "",
          "type": "address"
        }
      ],
      "name": "paymentBalances",
      "outputs": [
        {
          "internalType": "uint256",
          "name": "",
          "type": "uint256"
        }
      ],
      "stateMutability": "view",
      "type": "function"
    },
    {
      "inputs": [
        {
          "internalType": "address",
          "name": "listingId",
          "type": "address"
        },
        {
          "internalType": "uint256",
          "name": "amountToPurchase",
          "type": "uint256"
        }
      ],
      "name": "purchaseShares",
      "outputs": [],
      "stateMutability": "payable",
      "type": "function"
    },
    {
      "inputs": [],
      "name": "receiveRewards",
      "outputs": [],
      "stateMutability": "payable",
      "type": "function"
    },
    {
      "inputs": [
        {
          "internalType": "address",
          "name": "from",
          "type": "address"
        },
        {
          "internalType": "address",
          "name": "to",
          "type": "address"
        },
        {
          "internalType": "uint256[]",
          "name": "ids",
          "type": "uint256[]"
        },
        {
          "internalType": "uint256[]",
          "name": "amounts",
          "type": "uint256[]"
        },
        {
          "internalType": "bytes",
          "name": "data",
          "type": "bytes"
        }
      ],
      "name": "safeBatchTransferFrom",
      "outputs": [],
      "stateMutability": "nonpayable",
      "type": "function"
    },
    {
      "inputs": [
        {
          "internalType": "address",
          "name": "from",
          "type": "address"
        },
        {
          "internalType": "address",
          "name": "to",
          "type": "address"
        },
        {
          "internalType": "uint256",
          "name": "id",
          "type": "uint256"
        },
        {
          "internalType": "uint256",
          "name": "amount",
          "type": "uint256"
        },
        {
          "internalType": "bytes",
          "name": "data",
          "type": "bytes"
        }
      ],
      "name": "safeTransferFrom",
      "outputs": [],
      "stateMutability": "nonpayable",
      "type": "function"
    },
    {
      "inputs": [
        {
          "internalType": "address",
          "name": "operator",
          "type": "address"
        },
        {
          "internalType": "bool",
          "name": "approved",
          "type": "bool"
        }
      ],
      "name": "setApprovalForAll",
      "outputs": [],
      "stateMutability": "nonpayable",
      "type": "function"
    },
    {
      "inputs": [
        {
          "internalType": "bytes4",
          "name": "interfaceId",
          "type": "bytes4"
        }
      ],
      "name": "supportsInterface",
      "outputs": [
        {
          "internalType": "bool",
          "name": "",
          "type": "bool"
        }
      ],
      "stateMutability": "view",
      "type": "function"
    },
    {
      "inputs": [
        {
          "internalType": "uint256",
          "name": "",
          "type": "uint256"
        }
      ],
      "name": "uri",
      "outputs": [
        {
          "internalType": "string",
          "name": "",
          "type": "string"
        }
      ],
      "stateMutability": "view",
      "type": "function"
    },
    {
      "inputs": [
        {
          "internalType": "uint256",
          "name": "amount",
          "type": "uint256"
        },
        {
          "internalType": "address payable",
          "name": "recipientAddress",
          "type": "address"
        }
      ],
      "name": "withdrawFunds",
      "outputs": [],
      "stateMutability": "nonpayable",
      "type": "function"
    }
  ],
  "bytecode": "0x608060405260006003553480156200001657600080fd5b5060405162003ca838038062003ca883398181016040528101906200003c9190620001c7565b826200004e816200006660201b60201c565b508160068190555080600781905550505050620003ea565b80600290805190602001906200007e92919062000082565b5050565b8280546200009090620002e1565b90600052602060002090601f016020900481019282620000b4576000855562000100565b82601f10620000cf57805160ff191683800117855562000100565b8280016001018555821562000100579182015b82811115620000ff578251825591602001919060010190620000e2565b5b5090506200010f919062000113565b5090565b5b808211156200012e57600081600090555060010162000114565b5090565b60006200014962000143846200026b565b62000242565b905082815260208101848484011115620001685762000167620003b0565b5b62000175848285620002ab565b509392505050565b600082601f830112620001955762000194620003ab565b5b8151620001a784826020860162000132565b91505092915050565b600081519050620001c181620003d0565b92915050565b600080600060608486031215620001e357620001e2620003ba565b5b600084015167ffffffffffffffff811115620002045762000203620003b5565b5b62000212868287016200017d565b93505060206200022586828701620001b0565b92505060406200023886828701620001b0565b9150509250925092565b60006200024e62000261565b90506200025c828262000317565b919050565b6000604051905090565b600067ffffffffffffffff8211156200028957620002886200037c565b5b6200029482620003bf565b9050602081019050919050565b6000819050919050565b60005b83811015620002cb578082015181840152602081019050620002ae565b83811115620002db576000848401525b50505050565b60006002820490506001821680620002fa57607f821691505b602082108114156200031157620003106200034d565b5b50919050565b6200032282620003bf565b810181811067ffffffffffffffff821117156200034457620003436200037c565b5b80604052505050565b7f4e487b7100000000000000000000000000000000000000000000000000000000600052602260045260246000fd5b7f4e487b7100000000000000000000000000000000000000000000000000000000600052604160045260246000fd5b600080fd5b600080fd5b600080fd5b600080fd5b6000601f19601f8301169050919050565b620003db81620002a1565b8114620003e757600080fd5b50565b6138ae80620003fa6000396000f3fe6080604052600436106100e75760003560e01c8063631cbe3c1161008a578063a22cb46511610059578063a22cb465146102ef578063a238423614610318578063e985e9c514610341578063f242432a1461037e576100e7565b8063631cbe3c1461026257806365d96c821461026c578063744bfe61146102aa578063a0712d68146102d3576100e7565b80630e89341c116100c65780630e89341c146101a35780632eb2c2d6146101e0578063342d6d32146102095780634e1273f414610225576100e7565b8062fdd58e146100ec57806301ffc9a71461012957806303fc8d2b14610166575b600080fd5b3480156100f857600080fd5b50610113600480360381019061010e9190612438565b6103a7565b6040516101209190612d6c565b60405180910390f35b34801561013557600080fd5b50610150600480360381019061014b91906124f0565b610470565b60405161015d9190612acf565b60405180910390f35b34801561017257600080fd5b5061018d60048036038101906101889190612225565b610552565b60405161019a9190612d6c565b60405180910390f35b3480156101af57600080fd5b506101ca60048036038101906101c5919061254a565b61056a565b6040516101d79190612aea565b60405180910390f35b3480156101ec57600080fd5b5061020760048036038101906102029190612292565b6105fe565b005b610223600480360381019061021e9190612438565b61069f565b005b34801561023157600080fd5b5061024c60048036038101906102479190612478565b610a39565b6040516102599190612a76565b60405180910390f35b61026a610b52565b005b34801561027857600080fd5b50610293600480360381019061028e9190612225565b610c71565b6040516102a1929190612d87565b60405180910390f35b3480156102b657600080fd5b506102d160048036038101906102cc9190612577565b610c95565b005b6102ed60048036038101906102e8919061254a565b610db8565b005b3480156102fb57600080fd5b50610316600480360381019061031191906123f8565b610eb8565b005b34801561032457600080fd5b5061033f600480360381019061033a91906125b7565b611039565b005b34801561034d57600080fd5b5061036860048036038101906103639190612252565b61113f565b6040516103759190612acf565b60405180910390f35b34801561038a57600080fd5b506103a560048036038101906103a09190612361565b6111d3565b005b60008073ffffffffffffffffffffffffffffffffffffffff168373ffffffffffffffffffffffffffffffffffffffff161415610418576040517f08c379a000000000000000000000000000000000000000000000000000000000815260040161040f90612b6c565b60405180910390fd5b60008083815260200190815260200160002060008473ffffffffffffffffffffffffffffffffffffffff1673ffffffffffffffffffffffffffffffffffffffff16815260200190815260200160002054905092915050565b60007fd9b67a26000000000000000000000000000000000000000000000000000000007bffffffffffffffffffffffffffffffffffffffffffffffffffffffff1916827bffffffffffffffffffffffffffffffffffffffffffffffffffffffff1916148061053b57507f0e89341c000000000000000000000000000000000000000000000000000000007bffffffffffffffffffffffffffffffffffffffffffffffffffffffff1916827bffffffffffffffffffffffffffffffffffffffffffffffffffffffff1916145b8061054b575061054a82611274565b5b9050919050565b60056020528060005260406000206000915090505481565b606060028054610579906130ac565b80601f01602080910402602001604051908101604052809291908181526020018280546105a5906130ac565b80156105f25780601f106105c7576101008083540402835291602001916105f2565b820191906000526020600020905b8154815290600101906020018083116105d557829003601f168201915b50505050509050919050565b6106066112de565b73ffffffffffffffffffffffffffffffffffffffff168573ffffffffffffffffffffffffffffffffffffffff16148061064c575061064b856106466112de565b61113f565b5b61068b576040517f08c379a000000000000000000000000000000000000000000000000000000000815260040161068290612c2c565b60405180910390fd5b61069885858585856112e6565b5050505050565b6106f481600460008573ffffffffffffffffffffffffffffffffffffffff1673ffffffffffffffffffffffffffffffffffffffff168152602001908152602001600020600001546115fa90919063ffffffff16565b341015610736576040517f08c379a000000000000000000000000000000000000000000000000000000000815260040161072d90612bec565b60405180910390fd5b600460008373ffffffffffffffffffffffffffffffffffffffff1673ffffffffffffffffffffffffffffffffffffffff168152602001908152602001600020600101548111156107bb576040517f08c379a00000000000000000000000000000000000000000000000000000000081526004016107b290612b8c565b60405180910390fd5b806107c8836003546103a7565b1015610809576040517f08c379a000000000000000000000000000000000000000000000000000000000815260040161080090612c8c565b60405180910390fd5b34600560008473ffffffffffffffffffffffffffffffffffffffff1673ffffffffffffffffffffffffffffffffffffffff16815260200190815260200160002060008282546108589190612ecf565b9250508190555061087d823360035484604051806020016040528060008152506111d3565b600460008373ffffffffffffffffffffffffffffffffffffffff1673ffffffffffffffffffffffffffffffffffffffff1681526020019081526020016000206001015481141561091e57600460008373ffffffffffffffffffffffffffffffffffffffff1673ffffffffffffffffffffffffffffffffffffffff16815260200190815260200160002060008082016000905560018201600090555050610a20565b6040518060400160405280600460008573ffffffffffffffffffffffffffffffffffffffff1673ffffffffffffffffffffffffffffffffffffffff1681526020019081526020016000206000015481526020016109c683600460008773ffffffffffffffffffffffffffffffffffffffff1673ffffffffffffffffffffffffffffffffffffffff1681526020019081526020016000206001015461161090919063ffffffff16565b815250600460008473ffffffffffffffffffffffffffffffffffffffff1673ffffffffffffffffffffffffffffffffffffffff16815260200190815260200160002060008201518160000155602082015181600101559050505b610a3433600961162690919063ffffffff16565b505050565b60608151835114610a7f576040517f08c379a0000000000000000000000000000000000000000000000000000000008152600401610a7690612d0c565b60405180910390fd5b6000835167ffffffffffffffff811115610a9c57610a9b613214565b5b604051908082528060200260200182016040528015610aca5781602001602082028036833780820191505090505b50905060005b8451811015610b4757610b17858281518110610aef57610aee6131e5565b5b6020026020010151858381518110610b0a57610b096131e5565b5b60200260200101516103a7565b828281518110610b2a57610b296131e5565b5b60200260200101818152505080610b409061310f565b9050610ad0565b508091505092915050565b60005b610b5f6009611656565b811015610c6e576000610b7c82600961166b90919063ffffffff16565b90506000610b8c826003546103a7565b90506000811115610c59576000610bc034610bb26008548561168590919063ffffffff16565b6115fa90919063ffffffff16565b9050610c1481600560008673ffffffffffffffffffffffffffffffffffffffff1673ffffffffffffffffffffffffffffffffffffffff1681526020019081526020016000205461169b90919063ffffffff16565b600560008573ffffffffffffffffffffffffffffffffffffffff1673ffffffffffffffffffffffffffffffffffffffff16815260200190815260200160002081905550505b50508080610c669061310f565b915050610b55565b50565b60046020528060005260406000206000915090508060000154908060010154905082565b81600560003373ffffffffffffffffffffffffffffffffffffffff1673ffffffffffffffffffffffffffffffffffffffff168152602001908152602001600020541015610d17576040517f08c379a0000000000000000000000000000000000000000000000000000000008152600401610d0e90612ccc565b60405180910390fd5b8073ffffffffffffffffffffffffffffffffffffffff166108fc839081150290604051600060405180830381858888f19350505050158015610d5d573d6000803e3d6000fd5b5081600560003373ffffffffffffffffffffffffffffffffffffffff1673ffffffffffffffffffffffffffffffffffffffff1681526020019081526020016000206000828254610dad9190612fb0565b925050819055505050565b610dcd600654826115fa90919063ffffffff16565b341015610e0f576040517f08c379a0000000000000000000000000000000000000000000000000000000008152600401610e0690612bac565b60405180910390fd5b600754610e278260085461169b90919063ffffffff16565b1115610e68576040517f08c379a0000000000000000000000000000000000000000000000000000000008152600401610e5f90612c6c565b60405180910390fd5b610e853360035483604051806020016040528060008152506116b1565b610e9a8160085461169b90919063ffffffff16565b600881905550610eb433600961162690919063ffffffff16565b5050565b8173ffffffffffffffffffffffffffffffffffffffff16610ed76112de565b73ffffffffffffffffffffffffffffffffffffffff161415610f2e576040517f08c379a0000000000000000000000000000000000000000000000000000000008152600401610f2590612cec565b60405180910390fd5b8060016000610f3b6112de565b73ffffffffffffffffffffffffffffffffffffffff1673ffffffffffffffffffffffffffffffffffffffff16815260200190815260200160002060008473ffffffffffffffffffffffffffffffffffffffff1673ffffffffffffffffffffffffffffffffffffffff16815260200190815260200160002060006101000a81548160ff0219169083151502179055508173ffffffffffffffffffffffffffffffffffffffff16610fe86112de565b73ffffffffffffffffffffffffffffffffffffffff167f17307eab39ab6107e8899845ad3d59bd9653f200f220920489ca2b5937696c318360405161102d9190612acf565b60405180910390a35050565b80611046336003546103a7565b1015611087576040517f08c379a000000000000000000000000000000000000000000000000000000000815260040161107e90612cac565b60405180910390fd5b611091333061113f565b6110d0576040517f08c379a00000000000000000000000000000000000000000000000000000000081526004016110c790612b4c565b60405180910390fd5b604051806040016040528083815260200182815250600460003373ffffffffffffffffffffffffffffffffffffffff1673ffffffffffffffffffffffffffffffffffffffff16815260200190815260200160002060008201518160000155602082015181600101559050505050565b6000600160008473ffffffffffffffffffffffffffffffffffffffff1673ffffffffffffffffffffffffffffffffffffffff16815260200190815260200160002060008373ffffffffffffffffffffffffffffffffffffffff1673ffffffffffffffffffffffffffffffffffffffff16815260200190815260200160002060009054906101000a900460ff16905092915050565b6111db6112de565b73ffffffffffffffffffffffffffffffffffffffff168573ffffffffffffffffffffffffffffffffffffffff16148061122157506112208561121b6112de565b61113f565b5b611260576040517f08c379a000000000000000000000000000000000000000000000000000000000815260040161125790612bcc565b60405180910390fd5b61126d8585858585611847565b5050505050565b60007f01ffc9a7000000000000000000000000000000000000000000000000000000007bffffffffffffffffffffffffffffffffffffffffffffffffffffffff1916827bffffffffffffffffffffffffffffffffffffffffffffffffffffffff1916149050919050565b600033905090565b815183511461132a576040517f08c379a000000000000000000000000000000000000000000000000000000000815260040161132190612d2c565b60405180910390fd5b600073ffffffffffffffffffffffffffffffffffffffff168473ffffffffffffffffffffffffffffffffffffffff16141561139a576040517f08c379a000000000000000000000000000000000000000000000000000000000815260040161139190612c0c565b60405180910390fd5b60006113a46112de565b90506113b4818787878787611ac9565b60005b84518110156115655760008582815181106113d5576113d46131e5565b5b6020026020010151905060008583815181106113f4576113f36131e5565b5b60200260200101519050600080600084815260200190815260200160002060008b73ffffffffffffffffffffffffffffffffffffffff1673ffffffffffffffffffffffffffffffffffffffff16815260200190815260200160002054905081811015611495576040517f08c379a000000000000000000000000000000000000000000000000000000000815260040161148c90612c4c565b60405180910390fd5b81810360008085815260200190815260200160002060008c73ffffffffffffffffffffffffffffffffffffffff1673ffffffffffffffffffffffffffffffffffffffff168152602001908152602001600020819055508160008085815260200190815260200160002060008b73ffffffffffffffffffffffffffffffffffffffff1673ffffffffffffffffffffffffffffffffffffffff168152602001908152602001600020600082825461154a9190612ecf565b925050819055505050508061155e9061310f565b90506113b7565b508473ffffffffffffffffffffffffffffffffffffffff168673ffffffffffffffffffffffffffffffffffffffff168273ffffffffffffffffffffffffffffffffffffffff167f4a39dc06d4c0dbc64b70af90fd698a233a518aa5d07e595d983b8c0526c8f7fb87876040516115dc929190612a98565b60405180910390a46115f2818787878787611ad1565b505050505050565b600081836116089190612f56565b905092915050565b6000818361161e9190612fb0565b905092915050565b600061164e836000018373ffffffffffffffffffffffffffffffffffffffff1660001b611cb8565b905092915050565b600061166482600001611d28565b9050919050565b600061167a8360000183611d39565b60001c905092915050565b600081836116939190612f25565b905092915050565b600081836116a99190612ecf565b905092915050565b600073ffffffffffffffffffffffffffffffffffffffff168473ffffffffffffffffffffffffffffffffffffffff161415611721576040517f08c379a000000000000000000000000000000000000000000000000000000000815260040161171890612d4c565b60405180910390fd5b600061172b6112de565b905061174c8160008761173d88611d64565b61174688611d64565b87611ac9565b8260008086815260200190815260200160002060008773ffffffffffffffffffffffffffffffffffffffff1673ffffffffffffffffffffffffffffffffffffffff16815260200190815260200160002060008282546117ab9190612ecf565b925050819055508473ffffffffffffffffffffffffffffffffffffffff16600073ffffffffffffffffffffffffffffffffffffffff168273ffffffffffffffffffffffffffffffffffffffff167fc3d58168c5ae7397731d063d5bbf3d657854427343f4c083240f7aacaa2d0f628787604051611829929190612d87565b60405180910390a461184081600087878787611dde565b5050505050565b600073ffffffffffffffffffffffffffffffffffffffff168473ffffffffffffffffffffffffffffffffffffffff1614156118b7576040517f08c379a00000000000000000000000000000000000000000000000000000000081526004016118ae90612c0c565b60405180910390fd5b60006118c16112de565b90506118e18187876118d288611d64565b6118db88611d64565b87611ac9565b600080600086815260200190815260200160002060008873ffffffffffffffffffffffffffffffffffffffff1673ffffffffffffffffffffffffffffffffffffffff16815260200190815260200160002054905083811015611978576040517f08c379a000000000000000000000000000000000000000000000000000000000815260040161196f90612c4c565b60405180910390fd5b83810360008087815260200190815260200160002060008973ffffffffffffffffffffffffffffffffffffffff1673ffffffffffffffffffffffffffffffffffffffff168152602001908152602001600020819055508360008087815260200190815260200160002060008873ffffffffffffffffffffffffffffffffffffffff1673ffffffffffffffffffffffffffffffffffffffff1681526020019081526020016000206000828254611a2d9190612ecf565b925050819055508573ffffffffffffffffffffffffffffffffffffffff168773ffffffffffffffffffffffffffffffffffffffff168373ffffffffffffffffffffffffffffffffffffffff167fc3d58168c5ae7397731d063d5bbf3d657854427343f4c083240f7aacaa2d0f628888604051611aaa929190612d87565b60405180910390a4611ac0828888888888611dde565b50505050505050565b505050505050565b611af08473ffffffffffffffffffffffffffffffffffffffff16611fc5565b15611cb0578373ffffffffffffffffffffffffffffffffffffffff1663bc197c8187878686866040518663ffffffff1660e01b8152600401611b369594939291906129b4565b602060405180830381600087803b158015611b5057600080fd5b505af1925050508015611b8157506040513d601f19601f82011682018060405250810190611b7e919061251d565b60015b611c2757611b8d613243565b806308c379a01415611bea5750611ba261376f565b80611bad5750611bec565b806040517f08c379a0000000000000000000000000000000000000000000000000000000008152600401611be19190612aea565b60405180910390fd5b505b6040517f08c379a0000000000000000000000000000000000000000000000000000000008152600401611c1e90612b0c565b60405180910390fd5b63bc197c8160e01b7bffffffffffffffffffffffffffffffffffffffffffffffffffffffff1916817bffffffffffffffffffffffffffffffffffffffffffffffffffffffff191614611cae576040517f08c379a0000000000000000000000000000000000000000000000000000000008152600401611ca590612b2c565b60405180910390fd5b505b505050505050565b6000611cc48383611fd8565b611d1d578260000182908060018154018082558091505060019003906000526020600020016000909190919091505582600001805490508360010160008481526020019081526020016000208190555060019050611d22565b600090505b92915050565b600081600001805490509050919050565b6000826000018281548110611d5157611d506131e5565b5b9060005260206000200154905092915050565b60606000600167ffffffffffffffff811115611d8357611d82613214565b5b604051908082528060200260200182016040528015611db15781602001602082028036833780820191505090505b5090508281600081518110611dc957611dc86131e5565b5b60200260200101818152505080915050919050565b611dfd8473ffffffffffffffffffffffffffffffffffffffff16611fc5565b15611fbd578373ffffffffffffffffffffffffffffffffffffffff1663f23a6e6187878686866040518663ffffffff1660e01b8152600401611e43959493929190612a1c565b602060405180830381600087803b158015611e5d57600080fd5b505af1925050508015611e8e57506040513d601f19601f82011682018060405250810190611e8b919061251d565b60015b611f3457611e9a613243565b806308c379a01415611ef75750611eaf61376f565b80611eba5750611ef9565b806040517f08c379a0000000000000000000000000000000000000000000000000000000008152600401611eee9190612aea565b60405180910390fd5b505b6040517f08c379a0000000000000000000000000000000000000000000000000000000008152600401611f2b90612b0c565b60405180910390fd5b63f23a6e6160e01b7bffffffffffffffffffffffffffffffffffffffffffffffffffffffff1916817bffffffffffffffffffffffffffffffffffffffffffffffffffffffff191614611fbb576040517f08c379a0000000000000000000000000000000000000000000000000000000008152600401611fb290612b2c565b60405180910390fd5b505b505050505050565b600080823b905060008111915050919050565b600080836001016000848152602001908152602001600020541415905092915050565b600061200e61200984612dd5565b612db0565b905080838252602082019050828560208602820111156120315761203061326a565b5b60005b858110156120615781612047888261211d565b845260208401935060208301925050600181019050612034565b5050509392505050565b600061207e61207984612e01565b612db0565b905080838252602082019050828560208602820111156120a1576120a061326a565b5b60005b858110156120d157816120b78882612210565b8452602084019350602083019250506001810190506120a4565b5050509392505050565b60006120ee6120e984612e2d565b612db0565b90508281526020810184848401111561210a5761210961326f565b5b61211584828561306a565b509392505050565b60008135905061212c81613805565b92915050565b6000813590506121418161381c565b92915050565b600082601f83011261215c5761215b613265565b5b813561216c848260208601611ffb565b91505092915050565b600082601f83011261218a57612189613265565b5b813561219a84826020860161206b565b91505092915050565b6000813590506121b281613833565b92915050565b6000813590506121c78161384a565b92915050565b6000815190506121dc8161384a565b92915050565b600082601f8301126121f7576121f6613265565b5b81356122078482602086016120db565b91505092915050565b60008135905061221f81613861565b92915050565b60006020828403121561223b5761223a613279565b5b60006122498482850161211d565b91505092915050565b6000806040838503121561226957612268613279565b5b60006122778582860161211d565b92505060206122888582860161211d565b9150509250929050565b600080600080600060a086880312156122ae576122ad613279565b5b60006122bc8882890161211d565b95505060206122cd8882890161211d565b945050604086013567ffffffffffffffff8111156122ee576122ed613274565b5b6122fa88828901612175565b935050606086013567ffffffffffffffff81111561231b5761231a613274565b5b61232788828901612175565b925050608086013567ffffffffffffffff81111561234857612347613274565b5b612354888289016121e2565b9150509295509295909350565b600080600080600060a0868803121561237d5761237c613279565b5b600061238b8882890161211d565b955050602061239c8882890161211d565b94505060406123ad88828901612210565b93505060606123be88828901612210565b925050608086013567ffffffffffffffff8111156123df576123de613274565b5b6123eb888289016121e2565b9150509295509295909350565b6000806040838503121561240f5761240e613279565b5b600061241d8582860161211d565b925050602061242e858286016121a3565b9150509250929050565b6000806040838503121561244f5761244e613279565b5b600061245d8582860161211d565b925050602061246e85828601612210565b9150509250929050565b6000806040838503121561248f5761248e613279565b5b600083013567ffffffffffffffff8111156124ad576124ac613274565b5b6124b985828601612147565b925050602083013567ffffffffffffffff8111156124da576124d9613274565b5b6124e685828601612175565b9150509250929050565b60006020828403121561250657612505613279565b5b6000612514848285016121b8565b91505092915050565b60006020828403121561253357612532613279565b5b6000612541848285016121cd565b91505092915050565b6000602082840312156125605761255f613279565b5b600061256e84828501612210565b91505092915050565b6000806040838503121561258e5761258d613279565b5b600061259c85828601612210565b92505060206125ad85828601612132565b9150509250929050565b600080604083850312156125ce576125cd613279565b5b60006125dc85828601612210565b92505060206125ed85828601612210565b9150509250929050565b60006126038383612996565b60208301905092915050565b61261881612fe4565b82525050565b600061262982612e6e565b6126338185612e9c565b935061263e83612e5e565b8060005b8381101561266f57815161265688826125f7565b975061266183612e8f565b925050600181019050612642565b5085935050505092915050565b61268581613008565b82525050565b600061269682612e79565b6126a08185612ead565b93506126b0818560208601613079565b6126b98161327e565b840191505092915050565b60006126cf82612e84565b6126d98185612ebe565b93506126e9818560208601613079565b6126f28161327e565b840191505092915050565b600061270a603483612ebe565b91506127158261329c565b604082019050919050565b600061272d602883612ebe565b9150612738826132eb565b604082019050919050565b6000612750601983612ebe565b915061275b8261333a565b602082019050919050565b6000612773602b83612ebe565b915061277e82613363565b604082019050919050565b6000612796602283612ebe565b91506127a1826133b2565b604082019050919050565b60006127b9601683612ebe565b91506127c482613401565b602082019050919050565b60006127dc602983612ebe565b91506127e78261342a565b604082019050919050565b60006127ff601783612ebe565b915061280a82613479565b602082019050919050565b6000612822602583612ebe565b915061282d826134a2565b604082019050919050565b6000612845603283612ebe565b9150612850826134f1565b604082019050919050565b6000612868602a83612ebe565b915061287382613540565b604082019050919050565b600061288b601883612ebe565b91506128968261358f565b602082019050919050565b60006128ae601e83612ebe565b91506128b9826135b8565b602082019050919050565b60006128d1601b83612ebe565b91506128dc826135e1565b602082019050919050565b60006128f4601283612ebe565b91506128ff8261360a565b602082019050919050565b6000612917602983612ebe565b915061292282613633565b604082019050919050565b600061293a602983612ebe565b915061294582613682565b604082019050919050565b600061295d602883612ebe565b9150612968826136d1565b604082019050919050565b6000612980602183612ebe565b915061298b82613720565b604082019050919050565b61299f81613060565b82525050565b6129ae81613060565b82525050565b600060a0820190506129c9600083018861260f565b6129d6602083018761260f565b81810360408301526129e8818661261e565b905081810360608301526129fc818561261e565b90508181036080830152612a10818461268b565b90509695505050505050565b600060a082019050612a31600083018861260f565b612a3e602083018761260f565b612a4b60408301866129a5565b612a5860608301856129a5565b8181036080830152612a6a818461268b565b90509695505050505050565b60006020820190508181036000830152612a90818461261e565b905092915050565b60006040820190508181036000830152612ab2818561261e565b90508181036020830152612ac6818461261e565b90509392505050565b6000602082019050612ae4600083018461267c565b92915050565b60006020820190508181036000830152612b0481846126c4565b905092915050565b60006020820190508181036000830152612b25816126fd565b9050919050565b60006020820190508181036000830152612b4581612720565b9050919050565b60006020820190508181036000830152612b6581612743565b9050919050565b60006020820190508181036000830152612b8581612766565b9050919050565b60006020820190508181036000830152612ba581612789565b9050919050565b60006020820190508181036000830152612bc5816127ac565b9050919050565b60006020820190508181036000830152612be5816127cf565b9050919050565b60006020820190508181036000830152612c05816127f2565b9050919050565b60006020820190508181036000830152612c2581612815565b9050919050565b60006020820190508181036000830152612c4581612838565b9050919050565b60006020820190508181036000830152612c658161285b565b9050919050565b60006020820190508181036000830152612c858161287e565b9050919050565b60006020820190508181036000830152612ca5816128a1565b9050919050565b60006020820190508181036000830152612cc5816128c4565b9050919050565b60006020820190508181036000830152612ce5816128e7565b9050919050565b60006020820190508181036000830152612d058161290a565b9050919050565b60006020820190508181036000830152612d258161292d565b9050919050565b60006020820190508181036000830152612d4581612950565b9050919050565b60006020820190508181036000830152612d6581612973565b9050919050565b6000602082019050612d8160008301846129a5565b92915050565b6000604082019050612d9c60008301856129a5565b612da960208301846129a5565b9392505050565b6000612dba612dcb565b9050612dc682826130de565b919050565b6000604051905090565b600067ffffffffffffffff821115612df057612def613214565b5b602082029050602081019050919050565b600067ffffffffffffffff821115612e1c57612e1b613214565b5b602082029050602081019050919050565b600067ffffffffffffffff821115612e4857612e47613214565b5b612e518261327e565b9050602081019050919050565b6000819050602082019050919050565b600081519050919050565b600081519050919050565b600081519050919050565b6000602082019050919050565b600082825260208201905092915050565b600082825260208201905092915050565b600082825260208201905092915050565b6000612eda82613060565b9150612ee583613060565b9250827fffffffffffffffffffffffffffffffffffffffffffffffffffffffffffffffff03821115612f1a57612f19613158565b5b828201905092915050565b6000612f3082613060565b9150612f3b83613060565b925082612f4b57612f4a613187565b5b828204905092915050565b6000612f6182613060565b9150612f6c83613060565b9250817fffffffffffffffffffffffffffffffffffffffffffffffffffffffffffffffff0483118215151615612fa557612fa4613158565b5b828202905092915050565b6000612fbb82613060565b9150612fc683613060565b925082821015612fd957612fd8613158565b5b828203905092915050565b6000612fef82613040565b9050919050565b600061300182613040565b9050919050565b60008115159050919050565b60007fffffffff0000000000000000000000000000000000000000000000000000000082169050919050565b600073ffffffffffffffffffffffffffffffffffffffff82169050919050565b6000819050919050565b82818337600083830152505050565b60005b8381101561309757808201518184015260208101905061307c565b838111156130a6576000848401525b50505050565b600060028204905060018216806130c457607f821691505b602082108114156130d8576130d76131b6565b5b50919050565b6130e78261327e565b810181811067ffffffffffffffff8211171561310657613105613214565b5b80604052505050565b600061311a82613060565b91507fffffffffffffffffffffffffffffffffffffffffffffffffffffffffffffffff82141561314d5761314c613158565b5b600182019050919050565b7f4e487b7100000000000000000000000000000000000000000000000000000000600052601160045260246000fd5b7f4e487b7100000000000000000000000000000000000000000000000000000000600052601260045260246000fd5b7f4e487b7100000000000000000000000000000000000000000000000000000000600052602260045260246000fd5b7f4e487b7100000000000000000000000000000000000000000000000000000000600052603260045260246000fd5b7f4e487b7100000000000000000000000000000000000000000000000000000000600052604160045260246000fd5b600060033d11156132625760046000803e61325f60005161328f565b90505b90565b600080fd5b600080fd5b600080fd5b600080fd5b600080fd5b6000601f19601f8301169050919050565b60008160e01c9050919050565b7f455243313135353a207472616e7366657220746f206e6f6e204552433131353560008201527f526563656976657220696d706c656d656e746572000000000000000000000000602082015250565b7f455243313135353a204552433131353552656365697665722072656a6563746560008201527f6420746f6b656e73000000000000000000000000000000000000000000000000602082015250565b7f636f6e7472616374206d75737420626520617070726f76656400000000000000600082015250565b7f455243313135353a2062616c616e636520717565727920666f7220746865207a60008201527f65726f2061646472657373000000000000000000000000000000000000000000602082015250565b7f696e76616c696420616d6f756e74206f6620736861726573207265717565737460008201527f6564000000000000000000000000000000000000000000000000000000000000602082015250565b7f496e76616c6964207061796d656e7420616d6f756e7400000000000000000000600082015250565b7f455243313135353a2063616c6c6572206973206e6f74206f776e6572206e6f7260008201527f20617070726f7665640000000000000000000000000000000000000000000000602082015250565b7f696e73756666696369656e742066756e64732073656e74000000000000000000600082015250565b7f455243313135353a207472616e7366657220746f20746865207a65726f20616460008201527f6472657373000000000000000000000000000000000000000000000000000000602082015250565b7f455243313135353a207472616e736665722063616c6c6572206973206e6f742060008201527f6f776e6572206e6f7220617070726f7665640000000000000000000000000000602082015250565b7f455243313135353a20696e73756666696369656e742062616c616e636520666f60008201527f72207472616e7366657200000000000000000000000000000000000000000000602082015250565b7f496e76616c696420616d6f756e74206f6620737570706c790000000000000000600082015250565b7f696e73756666696369656e7420616d6f756e742066726f6d206f776e65720000600082015250565b7f63616c6c6572206d757374206f776e20676976656e20746f6b656e0000000000600082015250565b7f696e73756666696369656e742066756e64730000000000000000000000000000600082015250565b7f455243313135353a2073657474696e6720617070726f76616c2073746174757360008201527f20666f722073656c660000000000000000000000000000000000000000000000602082015250565b7f455243313135353a206163636f756e747320616e6420696473206c656e67746860008201527f206d69736d617463680000000000000000000000000000000000000000000000602082015250565b7f455243313135353a2069647320616e6420616d6f756e7473206c656e6774682060008201527f6d69736d61746368000000000000000000000000000000000000000000000000602082015250565b7f455243313135353a206d696e7420746f20746865207a65726f2061646472657360008201527f7300000000000000000000000000000000000000000000000000000000000000602082015250565b600060443d101561377f57613802565b613787612dcb565b60043d036004823e80513d602482011167ffffffffffffffff821117156137af575050613802565b808201805167ffffffffffffffff8111156137cd5750505050613802565b80602083010160043d0385018111156137ea575050505050613802565b6137f9826020018501866130de565b82955050505050505b90565b61380e81612fe4565b811461381957600080fd5b50565b61382581612ff6565b811461383057600080fd5b50565b61383c81613008565b811461384757600080fd5b50565b61385381613014565b811461385e57600080fd5b50565b61386a81613060565b811461387557600080fd5b5056fea26469706673582212205c4109ed052932abd496a00dbc66016363b18b7e43e2f2b4a3af7a2d8e6b330664736f6c63430008070033",
  "linkReferences": {},
  "deployedLinkReferences": {}
}