{
  "_format": "hh-sol-artifact-1",
  "contractName": "Property",
  "sourceName": "contracts/Property.sol",
  "abi": [
    {
      "inputs": [
        {
          "internalType": "string",
          "name": "_baseUrl",
          "type": "string"
        },
        {
          "internalType": "uint256",
          "name": "_pricePerShare",
          "type": "uint256"
        },
        {
          "internalType": "uint256",
          "name": "_totalShares",
          "type": "uint256"
        }
      ],
      "stateMutability": "nonpayable",
      "type": "constructor"
    },
    {
      "anonymous": false,
      "inputs": [
        {
          "indexed": true,
          "internalType": "address",
          "name": "account",
          "type": "address"
        },
        {
          "indexed": true,
          "internalType": "address",
          "name": "operator",
          "type": "address"
        },
        {
          "indexed": false,
          "internalType": "bool",
          "name": "approved",
          "type": "bool"
        }
      ],
      "name": "ApprovalForAll",
      "type": "event"
    },
    {
      "anonymous": false,
      "inputs": [
        {
          "indexed": false,
          "internalType": "address",
          "name": "seller",
          "type": "address"
        },
        {
          "indexed": false,
          "internalType": "uint256",
          "name": "amount",
          "type": "uint256"
        }
      ],
      "name": "ListShares",
      "type": "event"
    },
    {
      "anonymous": false,
      "inputs": [
        {
          "indexed": false,
          "internalType": "address",
          "name": "minter",
          "type": "address"
        },
        {
          "indexed": false,
          "internalType": "uint256",
          "name": "amount",
          "type": "uint256"
        }
      ],
      "name": "MintShares",
      "type": "event"
    },
    {
      "anonymous": false,
      "inputs": [
        {
          "indexed": false,
          "internalType": "address",
          "name": "buyer",
          "type": "address"
        },
        {
          "indexed": false,
          "internalType": "address",
          "name": "seller",
          "type": "address"
        },
        {
          "indexed": false,
          "internalType": "uint256",
          "name": "amount",
          "type": "uint256"
        }
      ],
      "name": "PurchaseShares",
      "type": "event"
    },
    {
      "anonymous": false,
      "inputs": [
        {
          "indexed": false,
          "internalType": "address",
          "name": "fromAddress",
          "type": "address"
        },
        {
          "indexed": false,
          "internalType": "uint256",
          "name": "value",
          "type": "uint256"
        }
      ],
      "name": "ReceiveFunds",
      "type": "event"
    },
    {
      "anonymous": false,
      "inputs": [
        {
          "indexed": false,
          "internalType": "address",
          "name": "toAddress",
          "type": "address"
        },
        {
          "indexed": false,
          "internalType": "uint256",
          "name": "value",
          "type": "uint256"
        }
      ],
      "name": "ReceiveFundsPayout",
      "type": "event"
    },
    {
      "anonymous": false,
      "inputs": [
        {
          "indexed": true,
          "internalType": "address",
          "name": "operator",
          "type": "address"
        },
        {
          "indexed": true,
          "internalType": "address",
          "name": "from",
          "type": "address"
        },
        {
          "indexed": true,
          "internalType": "address",
          "name": "to",
          "type": "address"
        },
        {
          "indexed": false,
          "internalType": "uint256[]",
          "name": "ids",
          "type": "uint256[]"
        },
        {
          "indexed": false,
          "internalType": "uint256[]",
          "name": "values",
          "type": "uint256[]"
        }
      ],
      "name": "TransferBatch",
      "type": "event"
    },
    {
      "anonymous": false,
      "inputs": [
        {
          "indexed": true,
          "internalType": "address",
          "name": "operator",
          "type": "address"
        },
        {
          "indexed": true,
          "internalType": "address",
          "name": "from",
          "type": "address"
        },
        {
          "indexed": true,
          "internalType": "address",
          "name": "to",
          "type": "address"
        },
        {
          "indexed": false,
          "internalType": "uint256",
          "name": "id",
          "type": "uint256"
        },
        {
          "indexed": false,
          "internalType": "uint256",
          "name": "value",
          "type": "uint256"
        }
      ],
      "name": "TransferSingle",
      "type": "event"
    },
    {
      "anonymous": false,
      "inputs": [
        {
          "indexed": false,
          "internalType": "string",
          "name": "value",
          "type": "string"
        },
        {
          "indexed": true,
          "internalType": "uint256",
          "name": "id",
          "type": "uint256"
        }
      ],
      "name": "URI",
      "type": "event"
    },
    {
      "anonymous": false,
      "inputs": [
        {
          "indexed": false,
          "internalType": "address",
          "name": "withdrawalAddress",
          "type": "address"
        },
        {
          "indexed": false,
          "internalType": "uint256",
          "name": "value",
          "type": "uint256"
        }
      ],
      "name": "WithdrawFunds",
      "type": "event"
    },
    {
      "inputs": [
        {
          "internalType": "address",
          "name": "account",
          "type": "address"
        },
        {
          "internalType": "uint256",
          "name": "id",
          "type": "uint256"
        }
      ],
      "name": "balanceOf",
      "outputs": [
        {
          "internalType": "uint256",
          "name": "",
          "type": "uint256"
        }
      ],
      "stateMutability": "view",
      "type": "function"
    },
    {
      "inputs": [
        {
          "internalType": "address[]",
          "name": "accounts",
          "type": "address[]"
        },
        {
          "internalType": "uint256[]",
          "name": "ids",
          "type": "uint256[]"
        }
      ],
      "name": "balanceOfBatch",
      "outputs": [
        {
          "internalType": "uint256[]",
          "name": "",
          "type": "uint256[]"
        }
      ],
      "stateMutability": "view",
      "type": "function"
    },
    {
      "inputs": [
        {
          "internalType": "address",
          "name": "account",
          "type": "address"
        },
        {
          "internalType": "address",
          "name": "operator",
          "type": "address"
        }
      ],
      "name": "isApprovedForAll",
      "outputs": [
        {
          "internalType": "bool",
          "name": "",
          "type": "bool"
        }
      ],
      "stateMutability": "view",
      "type": "function"
    },
    {
      "inputs": [
        {
          "internalType": "uint256",
          "name": "price",
          "type": "uint256"
        },
        {
          "internalType": "uint256",
          "name": "amount",
          "type": "uint256"
        }
      ],
      "name": "listShares",
      "outputs": [],
      "stateMutability": "nonpayable",
      "type": "function"
    },
    {
      "inputs": [
        {
          "internalType": "address",
          "name": "",
          "type": "address"
        }
      ],
      "name": "listings",
      "outputs": [
        {
          "internalType": "uint256",
          "name": "price",
          "type": "uint256"
        },
        {
          "internalType": "uint256",
          "name": "amount",
          "type": "uint256"
        }
      ],
      "stateMutability": "view",
      "type": "function"
    },
    {
      "inputs": [
        {
          "internalType": "uint256",
          "name": "amountOfTokens",
          "type": "uint256"
        }
      ],
      "name": "mint",
      "outputs": [],
      "stateMutability": "payable",
      "type": "function"
    },
    {
      "inputs": [
        {
          "internalType": "address",
          "name": "",
          "type": "address"
        }
      ],
      "name": "paymentBalances",
      "outputs": [
        {
          "internalType": "uint256",
          "name": "",
          "type": "uint256"
        }
      ],
      "stateMutability": "view",
      "type": "function"
    },
    {
      "inputs": [],
      "name": "pricePerShare",
      "outputs": [
        {
          "internalType": "uint256",
          "name": "",
          "type": "uint256"
        }
      ],
      "stateMutability": "view",
      "type": "function"
    },
    {
      "inputs": [
        {
          "internalType": "address",
          "name": "listingId",
          "type": "address"
        },
        {
          "internalType": "uint256",
          "name": "amountToPurchase",
          "type": "uint256"
        }
      ],
      "name": "purchaseShares",
      "outputs": [],
      "stateMutability": "payable",
      "type": "function"
    },
    {
      "inputs": [],
      "name": "receiveFunds",
      "outputs": [],
      "stateMutability": "payable",
      "type": "function"
    },
    {
      "inputs": [
        {
          "internalType": "address",
          "name": "from",
          "type": "address"
        },
        {
          "internalType": "address",
          "name": "to",
          "type": "address"
        },
        {
          "internalType": "uint256[]",
          "name": "ids",
          "type": "uint256[]"
        },
        {
          "internalType": "uint256[]",
          "name": "amounts",
          "type": "uint256[]"
        },
        {
          "internalType": "bytes",
          "name": "data",
          "type": "bytes"
        }
      ],
      "name": "safeBatchTransferFrom",
      "outputs": [],
      "stateMutability": "nonpayable",
      "type": "function"
    },
    {
      "inputs": [
        {
          "internalType": "address",
          "name": "from",
          "type": "address"
        },
        {
          "internalType": "address",
          "name": "to",
          "type": "address"
        },
        {
          "internalType": "uint256",
          "name": "id",
          "type": "uint256"
        },
        {
          "internalType": "uint256",
          "name": "amount",
          "type": "uint256"
        },
        {
          "internalType": "bytes",
          "name": "data",
          "type": "bytes"
        }
      ],
      "name": "safeTransferFrom",
      "outputs": [],
      "stateMutability": "nonpayable",
      "type": "function"
    },
    {
      "inputs": [
        {
          "internalType": "address",
          "name": "operator",
          "type": "address"
        },
        {
          "internalType": "bool",
          "name": "approved",
          "type": "bool"
        }
      ],
      "name": "setApprovalForAll",
      "outputs": [],
      "stateMutability": "nonpayable",
      "type": "function"
    },
    {
      "inputs": [
        {
          "internalType": "bytes4",
          "name": "interfaceId",
          "type": "bytes4"
        }
      ],
      "name": "supportsInterface",
      "outputs": [
        {
          "internalType": "bool",
          "name": "",
          "type": "bool"
        }
      ],
      "stateMutability": "view",
      "type": "function"
    },
    {
      "inputs": [],
      "name": "totalIssuedShares",
      "outputs": [
        {
          "internalType": "uint256",
          "name": "",
          "type": "uint256"
        }
      ],
      "stateMutability": "view",
      "type": "function"
    },
    {
      "inputs": [],
      "name": "totalShares",
      "outputs": [
        {
          "internalType": "uint256",
          "name": "",
          "type": "uint256"
        }
      ],
      "stateMutability": "view",
      "type": "function"
    },
    {
      "inputs": [
        {
          "internalType": "uint256",
          "name": "",
          "type": "uint256"
        }
      ],
      "name": "uri",
      "outputs": [
        {
          "internalType": "string",
          "name": "",
          "type": "string"
        }
      ],
      "stateMutability": "view",
      "type": "function"
    },
    {
      "inputs": [
        {
          "internalType": "uint256",
          "name": "amount",
          "type": "uint256"
        },
        {
          "internalType": "address payable",
          "name": "recipientAddress",
          "type": "address"
        }
      ],
      "name": "withdrawFunds",
      "outputs": [],
      "stateMutability": "nonpayable",
      "type": "function"
    }
  ],
  "bytecode": "0x608060405260006003553480156200001657600080fd5b5060405162003d1f38038062003d1f83398181016040528101906200003c9190620001c7565b826200004e816200006660201b60201c565b508160068190555080600781905550505050620003ea565b80600290805190602001906200007e92919062000082565b5050565b8280546200009090620002e1565b90600052602060002090601f016020900481019282620000b4576000855562000100565b82601f10620000cf57805160ff191683800117855562000100565b8280016001018555821562000100579182015b82811115620000ff578251825591602001919060010190620000e2565b5b5090506200010f919062000113565b5090565b5b808211156200012e57600081600090555060010162000114565b5090565b60006200014962000143846200026b565b62000242565b905082815260208101848484011115620001685762000167620003b0565b5b62000175848285620002ab565b509392505050565b600082601f830112620001955762000194620003ab565b5b8151620001a784826020860162000132565b91505092915050565b600081519050620001c181620003d0565b92915050565b600080600060608486031215620001e357620001e2620003ba565b5b600084015167ffffffffffffffff811115620002045762000203620003b5565b5b62000212868287016200017d565b93505060206200022586828701620001b0565b92505060406200023886828701620001b0565b9150509250925092565b60006200024e62000261565b90506200025c828262000317565b919050565b6000604051905090565b600067ffffffffffffffff8211156200028957620002886200037c565b5b6200029482620003bf565b9050602081019050919050565b6000819050919050565b60005b83811015620002cb578082015181840152602081019050620002ae565b83811115620002db576000848401525b50505050565b60006002820490506001821680620002fa57607f821691505b602082108114156200031157620003106200034d565b5b50919050565b6200032282620003bf565b810181811067ffffffffffffffff821117156200034457620003436200037c565b5b80604052505050565b7f4e487b7100000000000000000000000000000000000000000000000000000000600052602260045260246000fd5b7f4e487b7100000000000000000000000000000000000000000000000000000000600052604160045260246000fd5b600080fd5b600080fd5b600080fd5b600080fd5b6000601f19601f8301169050919050565b620003db81620002a1565b8114620003e757600080fd5b50565b61392580620003fa6000396000f3fe6080604052600436106101075760003560e01c80634e1273f411610095578063a0712d6811610064578063a0712d6814610374578063a22cb46514610390578063a2384236146103b9578063e985e9c5146103e2578063f242432a1461041f57610107565b80634e1273f4146102a557806365d96c82146102e2578063744bfe611461032057806399530b061461034957610107565b80630e89341c116100dc5780630e89341c146101cd57806323b7c6461461020a5780632eb2c2d614610235578063342d6d321461025e5780633a98ef391461027a57610107565b80625c33e11461010c578062fdd58e1461011657806301ffc9a71461015357806303fc8d2b14610190575b600080fd5b610114610448565b005b34801561012257600080fd5b5061013d600480360381019061013891906124af565b610519565b60405161014a9190612de3565b60405180910390f35b34801561015f57600080fd5b5061017a60048036038101906101759190612567565b6105e2565b6040516101879190612b46565b60405180910390f35b34801561019c57600080fd5b506101b760048036038101906101b2919061229c565b6106c4565b6040516101c49190612de3565b60405180910390f35b3480156101d957600080fd5b506101f460048036038101906101ef91906125c1565b6106dc565b6040516102019190612b61565b60405180910390f35b34801561021657600080fd5b5061021f610770565b60405161022c9190612de3565b60405180910390f35b34801561024157600080fd5b5061025c60048036038101906102579190612309565b610776565b005b610278600480360381019061027391906124af565b610817565b005b34801561028657600080fd5b5061028f610bb1565b60405161029c9190612de3565b60405180910390f35b3480156102b157600080fd5b506102cc60048036038101906102c791906124ef565b610bb7565b6040516102d99190612aed565b60405180910390f35b3480156102ee57600080fd5b506103096004803603810190610304919061229c565b610cd0565b604051610317929190612dfe565b60405180910390f35b34801561032c57600080fd5b50610347600480360381019061034291906125ee565b610cf4565b005b34801561035557600080fd5b5061035e610e17565b60405161036b9190612de3565b60405180910390f35b61038e600480360381019061038991906125c1565b610e1d565b005b34801561039c57600080fd5b506103b760048036038101906103b2919061246f565b610f1d565b005b3480156103c557600080fd5b506103e060048036038101906103db919061262e565b610f33565b005b3480156103ee57600080fd5b50610409600480360381019061040491906122c9565b611039565b6040516104169190612b46565b60405180910390f35b34801561042b57600080fd5b50610446600480360381019061044191906123d8565b6110cd565b005b60005b610455600961116e565b81101561051657600061047282600961118390919063ffffffff16565b9050600061048282600354610519565b905060008111156105015760006104b6346104a86008548561119d90919063ffffffff16565b6111b390919063ffffffff16565b90508273ffffffffffffffffffffffffffffffffffffffff166108fc829081150290604051600060405180830381858888f193505050501580156104fe573d6000803e3d6000fd5b50505b5050808061050e90613186565b91505061044b565b50565b60008073ffffffffffffffffffffffffffffffffffffffff168373ffffffffffffffffffffffffffffffffffffffff16141561058a576040517f08c379a000000000000000000000000000000000000000000000000000000000815260040161058190612be3565b60405180910390fd5b60008083815260200190815260200160002060008473ffffffffffffffffffffffffffffffffffffffff1673ffffffffffffffffffffffffffffffffffffffff16815260200190815260200160002054905092915050565b60007fd9b67a26000000000000000000000000000000000000000000000000000000007bffffffffffffffffffffffffffffffffffffffffffffffffffffffff1916827bffffffffffffffffffffffffffffffffffffffffffffffffffffffff191614806106ad57507f0e89341c000000000000000000000000000000000000000000000000000000007bffffffffffffffffffffffffffffffffffffffffffffffffffffffff1916827bffffffffffffffffffffffffffffffffffffffffffffffffffffffff1916145b806106bd57506106bc826111c9565b5b9050919050565b60056020528060005260406000206000915090505481565b6060600280546106eb90613123565b80601f016020809104026020016040519081016040528092919081815260200182805461071790613123565b80156107645780601f1061073957610100808354040283529160200191610764565b820191906000526020600020905b81548152906001019060200180831161074757829003601f168201915b50505050509050919050565b60085481565b61077e611233565b73ffffffffffffffffffffffffffffffffffffffff168573ffffffffffffffffffffffffffffffffffffffff1614806107c457506107c3856107be611233565b611039565b5b610803576040517f08c379a00000000000000000000000000000000000000000000000000000000081526004016107fa90612ca3565b60405180910390fd5b610810858585858561123b565b5050505050565b61086c81600460008573ffffffffffffffffffffffffffffffffffffffff1673ffffffffffffffffffffffffffffffffffffffff168152602001908152602001600020600001546111b390919063ffffffff16565b3410156108ae576040517f08c379a00000000000000000000000000000000000000000000000000000000081526004016108a590612c63565b60405180910390fd5b600460008373ffffffffffffffffffffffffffffffffffffffff1673ffffffffffffffffffffffffffffffffffffffff16815260200190815260200160002060010154811115610933576040517f08c379a000000000000000000000000000000000000000000000000000000000815260040161092a90612c03565b60405180910390fd5b8061094083600354610519565b1015610981576040517f08c379a000000000000000000000000000000000000000000000000000000000815260040161097890612d03565b60405180910390fd5b34600560008473ffffffffffffffffffffffffffffffffffffffff1673ffffffffffffffffffffffffffffffffffffffff16815260200190815260200160002060008282546109d09190612f46565b925050819055506109f5823360035484604051806020016040528060008152506110cd565b600460008373ffffffffffffffffffffffffffffffffffffffff1673ffffffffffffffffffffffffffffffffffffffff16815260200190815260200160002060010154811415610a9657600460008373ffffffffffffffffffffffffffffffffffffffff1673ffffffffffffffffffffffffffffffffffffffff16815260200190815260200160002060008082016000905560018201600090555050610b98565b6040518060400160405280600460008573ffffffffffffffffffffffffffffffffffffffff1673ffffffffffffffffffffffffffffffffffffffff168152602001908152602001600020600001548152602001610b3e83600460008773ffffffffffffffffffffffffffffffffffffffff1673ffffffffffffffffffffffffffffffffffffffff1681526020019081526020016000206001015461154f90919063ffffffff16565b815250600460008473ffffffffffffffffffffffffffffffffffffffff1673ffffffffffffffffffffffffffffffffffffffff16815260200190815260200160002060008201518160000155602082015181600101559050505b610bac33600961156590919063ffffffff16565b505050565b60075481565b60608151835114610bfd576040517f08c379a0000000000000000000000000000000000000000000000000000000008152600401610bf490612d83565b60405180910390fd5b6000835167ffffffffffffffff811115610c1a57610c1961328b565b5b604051908082528060200260200182016040528015610c485781602001602082028036833780820191505090505b50905060005b8451811015610cc557610c95858281518110610c6d57610c6c61325c565b5b6020026020010151858381518110610c8857610c8761325c565b5b6020026020010151610519565b828281518110610ca857610ca761325c565b5b60200260200101818152505080610cbe90613186565b9050610c4e565b508091505092915050565b60046020528060005260406000206000915090508060000154908060010154905082565b81600560003373ffffffffffffffffffffffffffffffffffffffff1673ffffffffffffffffffffffffffffffffffffffff168152602001908152602001600020541015610d76576040517f08c379a0000000000000000000000000000000000000000000000000000000008152600401610d6d90612d43565b60405180910390fd5b8073ffffffffffffffffffffffffffffffffffffffff166108fc839081150290604051600060405180830381858888f19350505050158015610dbc573d6000803e3d6000fd5b5081600560003373ffffffffffffffffffffffffffffffffffffffff1673ffffffffffffffffffffffffffffffffffffffff1681526020019081526020016000206000828254610e0c9190613027565b925050819055505050565b60065481565b610e32600654826111b390919063ffffffff16565b341015610e74576040517f08c379a0000000000000000000000000000000000000000000000000000000008152600401610e6b90612c23565b60405180910390fd5b600754610e8c8260085461159590919063ffffffff16565b1115610ecd576040517f08c379a0000000000000000000000000000000000000000000000000000000008152600401610ec490612ce3565b60405180910390fd5b610eea3360035483604051806020016040528060008152506115ab565b610eff8160085461159590919063ffffffff16565b600881905550610f1933600961156590919063ffffffff16565b5050565b610f2f610f28611233565b8383611741565b5050565b80610f4033600354610519565b1015610f81576040517f08c379a0000000000000000000000000000000000000000000000000000000008152600401610f7890612d23565b60405180910390fd5b610f8b3330611039565b610fca576040517f08c379a0000000000000000000000000000000000000000000000000000000008152600401610fc190612bc3565b60405180910390fd5b604051806040016040528083815260200182815250600460003373ffffffffffffffffffffffffffffffffffffffff1673ffffffffffffffffffffffffffffffffffffffff16815260200190815260200160002060008201518160000155602082015181600101559050505050565b6000600160008473ffffffffffffffffffffffffffffffffffffffff1673ffffffffffffffffffffffffffffffffffffffff16815260200190815260200160002060008373ffffffffffffffffffffffffffffffffffffffff1673ffffffffffffffffffffffffffffffffffffffff16815260200190815260200160002060009054906101000a900460ff16905092915050565b6110d5611233565b73ffffffffffffffffffffffffffffffffffffffff168573ffffffffffffffffffffffffffffffffffffffff16148061111b575061111a85611115611233565b611039565b5b61115a576040517f08c379a000000000000000000000000000000000000000000000000000000000815260040161115190612c43565b60405180910390fd5b61116785858585856118ae565b5050505050565b600061117c82600001611b30565b9050919050565b60006111928360000183611b41565b60001c905092915050565b600081836111ab9190612f9c565b905092915050565b600081836111c19190612fcd565b905092915050565b60007f01ffc9a7000000000000000000000000000000000000000000000000000000007bffffffffffffffffffffffffffffffffffffffffffffffffffffffff1916827bffffffffffffffffffffffffffffffffffffffffffffffffffffffff1916149050919050565b600033905090565b815183511461127f576040517f08c379a000000000000000000000000000000000000000000000000000000000815260040161127690612da3565b60405180910390fd5b600073ffffffffffffffffffffffffffffffffffffffff168473ffffffffffffffffffffffffffffffffffffffff1614156112ef576040517f08c379a00000000000000000000000000000000000000000000000000000000081526004016112e690612c83565b60405180910390fd5b60006112f9611233565b9050611309818787878787611b6c565b60005b84518110156114ba57600085828151811061132a5761132961325c565b5b6020026020010151905060008583815181106113495761134861325c565b5b60200260200101519050600080600084815260200190815260200160002060008b73ffffffffffffffffffffffffffffffffffffffff1673ffffffffffffffffffffffffffffffffffffffff168152602001908152602001600020549050818110156113ea576040517f08c379a00000000000000000000000000000000000000000000000000000000081526004016113e190612cc3565b60405180910390fd5b81810360008085815260200190815260200160002060008c73ffffffffffffffffffffffffffffffffffffffff1673ffffffffffffffffffffffffffffffffffffffff168152602001908152602001600020819055508160008085815260200190815260200160002060008b73ffffffffffffffffffffffffffffffffffffffff1673ffffffffffffffffffffffffffffffffffffffff168152602001908152602001600020600082825461149f9190612f46565b92505081905550505050806114b390613186565b905061130c565b508473ffffffffffffffffffffffffffffffffffffffff168673ffffffffffffffffffffffffffffffffffffffff168273ffffffffffffffffffffffffffffffffffffffff167f4a39dc06d4c0dbc64b70af90fd698a233a518aa5d07e595d983b8c0526c8f7fb8787604051611531929190612b0f565b60405180910390a4611547818787878787611b74565b505050505050565b6000818361155d9190613027565b905092915050565b600061158d836000018373ffffffffffffffffffffffffffffffffffffffff1660001b611d5b565b905092915050565b600081836115a39190612f46565b905092915050565b600073ffffffffffffffffffffffffffffffffffffffff168473ffffffffffffffffffffffffffffffffffffffff16141561161b576040517f08c379a000000000000000000000000000000000000000000000000000000000815260040161161290612dc3565b60405180910390fd5b6000611625611233565b90506116468160008761163788611dcb565b61164088611dcb565b87611b6c565b8260008086815260200190815260200160002060008773ffffffffffffffffffffffffffffffffffffffff1673ffffffffffffffffffffffffffffffffffffffff16815260200190815260200160002060008282546116a59190612f46565b925050819055508473ffffffffffffffffffffffffffffffffffffffff16600073ffffffffffffffffffffffffffffffffffffffff168273ffffffffffffffffffffffffffffffffffffffff167fc3d58168c5ae7397731d063d5bbf3d657854427343f4c083240f7aacaa2d0f628787604051611723929190612dfe565b60405180910390a461173a81600087878787611e45565b5050505050565b8173ffffffffffffffffffffffffffffffffffffffff168373ffffffffffffffffffffffffffffffffffffffff1614156117b0576040517f08c379a00000000000000000000000000000000000000000000000000000000081526004016117a790612d63565b60405180910390fd5b80600160008573ffffffffffffffffffffffffffffffffffffffff1673ffffffffffffffffffffffffffffffffffffffff16815260200190815260200160002060008473ffffffffffffffffffffffffffffffffffffffff1673ffffffffffffffffffffffffffffffffffffffff16815260200190815260200160002060006101000a81548160ff0219169083151502179055508173ffffffffffffffffffffffffffffffffffffffff168373ffffffffffffffffffffffffffffffffffffffff167f17307eab39ab6107e8899845ad3d59bd9653f200f220920489ca2b5937696c31836040516118a19190612b46565b60405180910390a3505050565b600073ffffffffffffffffffffffffffffffffffffffff168473ffffffffffffffffffffffffffffffffffffffff16141561191e576040517f08c379a000000000000000000000000000000000000000000000000000000000815260040161191590612c83565b60405180910390fd5b6000611928611233565b905061194881878761193988611dcb565b61194288611dcb565b87611b6c565b600080600086815260200190815260200160002060008873ffffffffffffffffffffffffffffffffffffffff1673ffffffffffffffffffffffffffffffffffffffff168152602001908152602001600020549050838110156119df576040517f08c379a00000000000000000000000000000000000000000000000000000000081526004016119d690612cc3565b60405180910390fd5b83810360008087815260200190815260200160002060008973ffffffffffffffffffffffffffffffffffffffff1673ffffffffffffffffffffffffffffffffffffffff168152602001908152602001600020819055508360008087815260200190815260200160002060008873ffffffffffffffffffffffffffffffffffffffff1673ffffffffffffffffffffffffffffffffffffffff1681526020019081526020016000206000828254611a949190612f46565b925050819055508573ffffffffffffffffffffffffffffffffffffffff168773ffffffffffffffffffffffffffffffffffffffff168373ffffffffffffffffffffffffffffffffffffffff167fc3d58168c5ae7397731d063d5bbf3d657854427343f4c083240f7aacaa2d0f628888604051611b11929190612dfe565b60405180910390a4611b27828888888888611e45565b50505050505050565b600081600001805490509050919050565b6000826000018281548110611b5957611b5861325c565b5b9060005260206000200154905092915050565b505050505050565b611b938473ffffffffffffffffffffffffffffffffffffffff1661202c565b15611d53578373ffffffffffffffffffffffffffffffffffffffff1663bc197c8187878686866040518663ffffffff1660e01b8152600401611bd9959493929190612a2b565b602060405180830381600087803b158015611bf357600080fd5b505af1925050508015611c2457506040513d601f19601f82011682018060405250810190611c219190612594565b60015b611cca57611c306132ba565b806308c379a01415611c8d5750611c456137e6565b80611c505750611c8f565b806040517f08c379a0000000000000000000000000000000000000000000000000000000008152600401611c849190612b61565b60405180910390fd5b505b6040517f08c379a0000000000000000000000000000000000000000000000000000000008152600401611cc190612b83565b60405180910390fd5b63bc197c8160e01b7bffffffffffffffffffffffffffffffffffffffffffffffffffffffff1916817bffffffffffffffffffffffffffffffffffffffffffffffffffffffff191614611d51576040517f08c379a0000000000000000000000000000000000000000000000000000000008152600401611d4890612ba3565b60405180910390fd5b505b505050505050565b6000611d67838361204f565b611dc0578260000182908060018154018082558091505060019003906000526020600020016000909190919091505582600001805490508360010160008481526020019081526020016000208190555060019050611dc5565b600090505b92915050565b60606000600167ffffffffffffffff811115611dea57611de961328b565b5b604051908082528060200260200182016040528015611e185781602001602082028036833780820191505090505b5090508281600081518110611e3057611e2f61325c565b5b60200260200101818152505080915050919050565b611e648473ffffffffffffffffffffffffffffffffffffffff1661202c565b15612024578373ffffffffffffffffffffffffffffffffffffffff1663f23a6e6187878686866040518663ffffffff1660e01b8152600401611eaa959493929190612a93565b602060405180830381600087803b158015611ec457600080fd5b505af1925050508015611ef557506040513d601f19601f82011682018060405250810190611ef29190612594565b60015b611f9b57611f016132ba565b806308c379a01415611f5e5750611f166137e6565b80611f215750611f60565b806040517f08c379a0000000000000000000000000000000000000000000000000000000008152600401611f559190612b61565b60405180910390fd5b505b6040517f08c379a0000000000000000000000000000000000000000000000000000000008152600401611f9290612b83565b60405180910390fd5b63f23a6e6160e01b7bffffffffffffffffffffffffffffffffffffffffffffffffffffffff1916817bffffffffffffffffffffffffffffffffffffffffffffffffffffffff191614612022576040517f08c379a000000000000000000000000000000000000000000000000000000000815260040161201990612ba3565b60405180910390fd5b505b505050505050565b6000808273ffffffffffffffffffffffffffffffffffffffff163b119050919050565b600080836001016000848152602001908152602001600020541415905092915050565b600061208561208084612e4c565b612e27565b905080838252602082019050828560208602820111156120a8576120a76132e1565b5b60005b858110156120d857816120be8882612194565b8452602084019350602083019250506001810190506120ab565b5050509392505050565b60006120f56120f084612e78565b612e27565b90508083825260208201905082856020860282011115612118576121176132e1565b5b60005b85811015612148578161212e8882612287565b84526020840193506020830192505060018101905061211b565b5050509392505050565b600061216561216084612ea4565b612e27565b905082815260208101848484011115612181576121806132e6565b5b61218c8482856130e1565b509392505050565b6000813590506121a38161387c565b92915050565b6000813590506121b881613893565b92915050565b600082601f8301126121d3576121d26132dc565b5b81356121e3848260208601612072565b91505092915050565b600082601f830112612201576122006132dc565b5b81356122118482602086016120e2565b91505092915050565b600081359050612229816138aa565b92915050565b60008135905061223e816138c1565b92915050565b600081519050612253816138c1565b92915050565b600082601f83011261226e5761226d6132dc565b5b813561227e848260208601612152565b91505092915050565b600081359050612296816138d8565b92915050565b6000602082840312156122b2576122b16132f0565b5b60006122c084828501612194565b91505092915050565b600080604083850312156122e0576122df6132f0565b5b60006122ee85828601612194565b92505060206122ff85828601612194565b9150509250929050565b600080600080600060a08688031215612325576123246132f0565b5b600061233388828901612194565b955050602061234488828901612194565b945050604086013567ffffffffffffffff811115612365576123646132eb565b5b612371888289016121ec565b935050606086013567ffffffffffffffff811115612392576123916132eb565b5b61239e888289016121ec565b925050608086013567ffffffffffffffff8111156123bf576123be6132eb565b5b6123cb88828901612259565b9150509295509295909350565b600080600080600060a086880312156123f4576123f36132f0565b5b600061240288828901612194565b955050602061241388828901612194565b945050604061242488828901612287565b935050606061243588828901612287565b925050608086013567ffffffffffffffff811115612456576124556132eb565b5b61246288828901612259565b9150509295509295909350565b60008060408385031215612486576124856132f0565b5b600061249485828601612194565b92505060206124a58582860161221a565b9150509250929050565b600080604083850312156124c6576124c56132f0565b5b60006124d485828601612194565b92505060206124e585828601612287565b9150509250929050565b60008060408385031215612506576125056132f0565b5b600083013567ffffffffffffffff811115612524576125236132eb565b5b612530858286016121be565b925050602083013567ffffffffffffffff811115612551576125506132eb565b5b61255d858286016121ec565b9150509250929050565b60006020828403121561257d5761257c6132f0565b5b600061258b8482850161222f565b91505092915050565b6000602082840312156125aa576125a96132f0565b5b60006125b884828501612244565b91505092915050565b6000602082840312156125d7576125d66132f0565b5b60006125e584828501612287565b91505092915050565b60008060408385031215612605576126046132f0565b5b600061261385828601612287565b9250506020612624858286016121a9565b9150509250929050565b60008060408385031215612645576126446132f0565b5b600061265385828601612287565b925050602061266485828601612287565b9150509250929050565b600061267a8383612a0d565b60208301905092915050565b61268f8161305b565b82525050565b60006126a082612ee5565b6126aa8185612f13565b93506126b583612ed5565b8060005b838110156126e65781516126cd888261266e565b97506126d883612f06565b9250506001810190506126b9565b5085935050505092915050565b6126fc8161307f565b82525050565b600061270d82612ef0565b6127178185612f24565b93506127278185602086016130f0565b612730816132f5565b840191505092915050565b600061274682612efb565b6127508185612f35565b93506127608185602086016130f0565b612769816132f5565b840191505092915050565b6000612781603483612f35565b915061278c82613313565b604082019050919050565b60006127a4602883612f35565b91506127af82613362565b604082019050919050565b60006127c7601983612f35565b91506127d2826133b1565b602082019050919050565b60006127ea602b83612f35565b91506127f5826133da565b604082019050919050565b600061280d602283612f35565b915061281882613429565b604082019050919050565b6000612830601683612f35565b915061283b82613478565b602082019050919050565b6000612853602983612f35565b915061285e826134a1565b604082019050919050565b6000612876601783612f35565b9150612881826134f0565b602082019050919050565b6000612899602583612f35565b91506128a482613519565b604082019050919050565b60006128bc603283612f35565b91506128c782613568565b604082019050919050565b60006128df602a83612f35565b91506128ea826135b7565b604082019050919050565b6000612902601883612f35565b915061290d82613606565b602082019050919050565b6000612925601e83612f35565b91506129308261362f565b602082019050919050565b6000612948601b83612f35565b915061295382613658565b602082019050919050565b600061296b601283612f35565b915061297682613681565b602082019050919050565b600061298e602983612f35565b9150612999826136aa565b604082019050919050565b60006129b1602983612f35565b91506129bc826136f9565b604082019050919050565b60006129d4602883612f35565b91506129df82613748565b604082019050919050565b60006129f7602183612f35565b9150612a0282613797565b604082019050919050565b612a16816130d7565b82525050565b612a25816130d7565b82525050565b600060a082019050612a406000830188612686565b612a4d6020830187612686565b8181036040830152612a5f8186612695565b90508181036060830152612a738185612695565b90508181036080830152612a878184612702565b90509695505050505050565b600060a082019050612aa86000830188612686565b612ab56020830187612686565b612ac26040830186612a1c565b612acf6060830185612a1c565b8181036080830152612ae18184612702565b90509695505050505050565b60006020820190508181036000830152612b078184612695565b905092915050565b60006040820190508181036000830152612b298185612695565b90508181036020830152612b3d8184612695565b90509392505050565b6000602082019050612b5b60008301846126f3565b92915050565b60006020820190508181036000830152612b7b818461273b565b905092915050565b60006020820190508181036000830152612b9c81612774565b9050919050565b60006020820190508181036000830152612bbc81612797565b9050919050565b60006020820190508181036000830152612bdc816127ba565b9050919050565b60006020820190508181036000830152612bfc816127dd565b9050919050565b60006020820190508181036000830152612c1c81612800565b9050919050565b60006020820190508181036000830152612c3c81612823565b9050919050565b60006020820190508181036000830152612c5c81612846565b9050919050565b60006020820190508181036000830152612c7c81612869565b9050919050565b60006020820190508181036000830152612c9c8161288c565b9050919050565b60006020820190508181036000830152612cbc816128af565b9050919050565b60006020820190508181036000830152612cdc816128d2565b9050919050565b60006020820190508181036000830152612cfc816128f5565b9050919050565b60006020820190508181036000830152612d1c81612918565b9050919050565b60006020820190508181036000830152612d3c8161293b565b9050919050565b60006020820190508181036000830152612d5c8161295e565b9050919050565b60006020820190508181036000830152612d7c81612981565b9050919050565b60006020820190508181036000830152612d9c816129a4565b9050919050565b60006020820190508181036000830152612dbc816129c7565b9050919050565b60006020820190508181036000830152612ddc816129ea565b9050919050565b6000602082019050612df86000830184612a1c565b92915050565b6000604082019050612e136000830185612a1c565b612e206020830184612a1c565b9392505050565b6000612e31612e42565b9050612e3d8282613155565b919050565b6000604051905090565b600067ffffffffffffffff821115612e6757612e6661328b565b5b602082029050602081019050919050565b600067ffffffffffffffff821115612e9357612e9261328b565b5b602082029050602081019050919050565b600067ffffffffffffffff821115612ebf57612ebe61328b565b5b612ec8826132f5565b9050602081019050919050565b6000819050602082019050919050565b600081519050919050565b600081519050919050565b600081519050919050565b6000602082019050919050565b600082825260208201905092915050565b600082825260208201905092915050565b600082825260208201905092915050565b6000612f51826130d7565b9150612f5c836130d7565b9250827fffffffffffffffffffffffffffffffffffffffffffffffffffffffffffffffff03821115612f9157612f906131cf565b5b828201905092915050565b6000612fa7826130d7565b9150612fb2836130d7565b925082612fc257612fc16131fe565b5b828204905092915050565b6000612fd8826130d7565b9150612fe3836130d7565b9250817fffffffffffffffffffffffffffffffffffffffffffffffffffffffffffffffff048311821515161561301c5761301b6131cf565b5b828202905092915050565b6000613032826130d7565b915061303d836130d7565b9250828210156130505761304f6131cf565b5b828203905092915050565b6000613066826130b7565b9050919050565b6000613078826130b7565b9050919050565b60008115159050919050565b60007fffffffff0000000000000000000000000000000000000000000000000000000082169050919050565b600073ffffffffffffffffffffffffffffffffffffffff82169050919050565b6000819050919050565b82818337600083830152505050565b60005b8381101561310e5780820151818401526020810190506130f3565b8381111561311d576000848401525b50505050565b6000600282049050600182168061313b57607f821691505b6020821081141561314f5761314e61322d565b5b50919050565b61315e826132f5565b810181811067ffffffffffffffff8211171561317d5761317c61328b565b5b80604052505050565b6000613191826130d7565b91507fffffffffffffffffffffffffffffffffffffffffffffffffffffffffffffffff8214156131c4576131c36131cf565b5b600182019050919050565b7f4e487b7100000000000000000000000000000000000000000000000000000000600052601160045260246000fd5b7f4e487b7100000000000000000000000000000000000000000000000000000000600052601260045260246000fd5b7f4e487b7100000000000000000000000000000000000000000000000000000000600052602260045260246000fd5b7f4e487b7100000000000000000000000000000000000000000000000000000000600052603260045260246000fd5b7f4e487b7100000000000000000000000000000000000000000000000000000000600052604160045260246000fd5b600060033d11156132d95760046000803e6132d6600051613306565b90505b90565b600080fd5b600080fd5b600080fd5b600080fd5b600080fd5b6000601f19601f8301169050919050565b60008160e01c9050919050565b7f455243313135353a207472616e7366657220746f206e6f6e204552433131353560008201527f526563656976657220696d706c656d656e746572000000000000000000000000602082015250565b7f455243313135353a204552433131353552656365697665722072656a6563746560008201527f6420746f6b656e73000000000000000000000000000000000000000000000000602082015250565b7f636f6e7472616374206d75737420626520617070726f76656400000000000000600082015250565b7f455243313135353a2062616c616e636520717565727920666f7220746865207a60008201527f65726f2061646472657373000000000000000000000000000000000000000000602082015250565b7f696e76616c696420616d6f756e74206f6620736861726573207265717565737460008201527f6564000000000000000000000000000000000000000000000000000000000000602082015250565b7f496e76616c6964207061796d656e7420616d6f756e7400000000000000000000600082015250565b7f455243313135353a2063616c6c6572206973206e6f74206f776e6572206e6f7260008201527f20617070726f7665640000000000000000000000000000000000000000000000602082015250565b7f696e73756666696369656e742066756e64732073656e74000000000000000000600082015250565b7f455243313135353a207472616e7366657220746f20746865207a65726f20616460008201527f6472657373000000000000000000000000000000000000000000000000000000602082015250565b7f455243313135353a207472616e736665722063616c6c6572206973206e6f742060008201527f6f776e6572206e6f7220617070726f7665640000000000000000000000000000602082015250565b7f455243313135353a20696e73756666696369656e742062616c616e636520666f60008201527f72207472616e7366657200000000000000000000000000000000000000000000602082015250565b7f496e76616c696420616d6f756e74206f6620737570706c790000000000000000600082015250565b7f696e73756666696369656e7420616d6f756e742066726f6d206f776e65720000600082015250565b7f63616c6c6572206d757374206f776e20676976656e20746f6b656e0000000000600082015250565b7f696e73756666696369656e742066756e64730000000000000000000000000000600082015250565b7f455243313135353a2073657474696e6720617070726f76616c2073746174757360008201527f20666f722073656c660000000000000000000000000000000000000000000000602082015250565b7f455243313135353a206163636f756e747320616e6420696473206c656e67746860008201527f206d69736d617463680000000000000000000000000000000000000000000000602082015250565b7f455243313135353a2069647320616e6420616d6f756e7473206c656e6774682060008201527f6d69736d61746368000000000000000000000000000000000000000000000000602082015250565b7f455243313135353a206d696e7420746f20746865207a65726f2061646472657360008201527f7300000000000000000000000000000000000000000000000000000000000000602082015250565b600060443d10156137f657613879565b6137fe612e42565b60043d036004823e80513d602482011167ffffffffffffffff82111715613826575050613879565b808201805167ffffffffffffffff8111156138445750505050613879565b80602083010160043d038501811115613861575050505050613879565b61387082602001850186613155565b82955050505050505b90565b6138858161305b565b811461389057600080fd5b50565b61389c8161306d565b81146138a757600080fd5b50565b6138b38161307f565b81146138be57600080fd5b50565b6138ca8161308b565b81146138d557600080fd5b50565b6138e1816130d7565b81146138ec57600080fd5b5056fea2646970667358221220514615d006b70979104af28aeccdacbe50ce20972200bc3b8a8e3b67ef5addab64736f6c63430008070033",
  "linkReferences": {},
  "deployedLinkReferences": {}
}