{
  "_format": "hh-sol-artifact-1",
  "contractName": "DAORouter",
  "sourceName": "contracts/DAORouter.sol",
  "abi": [
    {
      "inputs": [
        {
          "internalType": "string",
          "name": "_daoName",
          "type": "string"
        },
        {
          "internalType": "address",
          "name": "_governorAddress",
          "type": "address"
        },
        {
          "internalType": "address",
          "name": "_tokenAddress",
          "type": "address"
        }
      ],
      "stateMutability": "nonpayable",
      "type": "constructor"
    },
    {
      "inputs": [],
      "name": "daoName",
      "outputs": [
        {
          "internalType": "string",
          "name": "",
          "type": "string"
        }
      ],
      "stateMutability": "view",
      "type": "function"
    },
    {
      "inputs": [],
      "name": "governanceTokenAddress",
      "outputs": [
        {
          "internalType": "address",
          "name": "",
          "type": "address"
        }
      ],
      "stateMutability": "view",
      "type": "function"
    },
    {
      "inputs": [],
      "name": "governorAddress",
      "outputs": [
        {
          "internalType": "address",
          "name": "",
          "type": "address"
        }
      ],
      "stateMutability": "view",
      "type": "function"
    }
  ],
  "bytecode": "0x608060405234801561001057600080fd5b50604051610759380380610759833981810160405281019061003291906101fb565b82600090805190602001906100489291906100d3565b5081600160006101000a81548173ffffffffffffffffffffffffffffffffffffffff021916908373ffffffffffffffffffffffffffffffffffffffff16021790555080600260006101000a81548173ffffffffffffffffffffffffffffffffffffffff021916908373ffffffffffffffffffffffffffffffffffffffff160217905550505050610422565b8280546100df90610325565b90600052602060002090601f0160209004810192826101015760008555610148565b82601f1061011a57805160ff1916838001178555610148565b82800160010185558215610148579182015b8281111561014757825182559160200191906001019061012c565b5b5090506101559190610159565b5090565b5b8082111561017257600081600090555060010161015a565b5090565b60006101896101848461028f565b61026a565b9050828152602081018484840111156101a5576101a46103eb565b5b6101b08482856102f2565b509392505050565b6000815190506101c78161040b565b92915050565b600082601f8301126101e2576101e16103e6565b5b81516101f2848260208601610176565b91505092915050565b600080600060608486031215610214576102136103f5565b5b600084015167ffffffffffffffff811115610232576102316103f0565b5b61023e868287016101cd565b935050602061024f868287016101b8565b9250506040610260868287016101b8565b9150509250925092565b6000610274610285565b90506102808282610357565b919050565b6000604051905090565b600067ffffffffffffffff8211156102aa576102a96103b7565b5b6102b3826103fa565b9050602081019050919050565b60006102cb826102d2565b9050919050565b600073ffffffffffffffffffffffffffffffffffffffff82169050919050565b60005b838110156103105780820151818401526020810190506102f5565b8381111561031f576000848401525b50505050565b6000600282049050600182168061033d57607f821691505b6020821081141561035157610350610388565b5b50919050565b610360826103fa565b810181811067ffffffffffffffff8211171561037f5761037e6103b7565b5b80604052505050565b7f4e487b7100000000000000000000000000000000000000000000000000000000600052602260045260246000fd5b7f4e487b7100000000000000000000000000000000000000000000000000000000600052604160045260246000fd5b600080fd5b600080fd5b600080fd5b600080fd5b6000601f19601f8301169050919050565b610414816102c0565b811461041f57600080fd5b50565b610328806104316000396000f3fe608060405234801561001057600080fd5b50600436106100415760003560e01c8063276f1c41146100465780634897693614610064578063b42165d014610082575b600080fd5b61004e6100a0565b60405161005b91906101c2565b60405180910390f35b61006c6100c6565b60405161007991906101dd565b60405180910390f35b61008a610154565b60405161009791906101c2565b60405180910390f35b600160009054906101000a900473ffffffffffffffffffffffffffffffffffffffff1681565b600080546100d390610280565b80601f01602080910402602001604051908101604052809291908181526020018280546100ff90610280565b801561014c5780601f106101215761010080835404028352916020019161014c565b820191906000526020600020905b81548152906001019060200180831161012f57829003601f168201915b505050505081565b600260009054906101000a900473ffffffffffffffffffffffffffffffffffffffff1681565b6101838161021b565b82525050565b6000610194826101ff565b61019e818561020a565b93506101ae81856020860161024d565b6101b7816102e1565b840191505092915050565b60006020820190506101d7600083018461017a565b92915050565b600060208201905081810360008301526101f78184610189565b905092915050565b600081519050919050565b600082825260208201905092915050565b60006102268261022d565b9050919050565b600073ffffffffffffffffffffffffffffffffffffffff82169050919050565b60005b8381101561026b578082015181840152602081019050610250565b8381111561027a576000848401525b50505050565b6000600282049050600182168061029857607f821691505b602082108114156102ac576102ab6102b2565b5b50919050565b7f4e487b7100000000000000000000000000000000000000000000000000000000600052602260045260246000fd5b6000601f19601f830116905091905056fea2646970667358221220ee0ac6f663f650fa0c09e46e1e8453daa87aa3f53dcca45da6f3fa47580606bb64736f6c63430008070033",
  "linkReferences": {},
  "deployedLinkReferences": {}
}